:100000000C9482000C94AA000C94AC000C94AA00EE
:100010000C94AA000C94AA000C94AA000C94AA00B8
:100020000C94AA000C94AA000C94AA000C94AA00A8
:100030000C94AA000C94AA000C94AA000C94AA0098
:100040000C94AA000C94AA000C94AA000C94AA0088
:100050000C94AA000C94AA000C94AA000C94AA0078
:100060000C94AA000C94AA000C94AA000C94AA0068
:100070000C94AA000C94AA000C94AA0007634236C0
:10008000B79BD8A71A39685618AEBAAB558C1D3C29
:10009000B7CC5763BD6DEDFD753EF6177231BF00ED
:1000A0000000803F08000000BE922449123EABAA27
:1000B000AA2ABECDCCCC4C3E00000080BEABAAAA82
:1000C000AA3E00000000BF000000803F00000000CA
:1000D00000084178D3BB4387D1133D190E3CC3BD03
:1000E0004282AD2B3E68EC8276BED98FE1A93E4CB0
:1000F00080EFFFBE01C4FF7F3F0000000000010C45
:10010000520C360C11241FBECFEFD8E0DEBFCDBF9E
:1001100011E0A0E0B1E0EAE5F6E202C005900D9240
:10012000AC37B107D9F722E0ACE7B1E001C01D92CE
:10013000AA38B207E1F710E0C1E8D0E004C0219787
:10014000FE010E94870CCF37D107C9F70E9495099D
:100150000C94FB120C9400008F938FB78F939F9396
:100160008AE18A95F1F700C08091850291E08927A4
:10017000809385029F918F918FBF8F911895E99AF7
:10018000E9E6F0E0808184608083E19A78940895C4
:10019000FC01AC01495F5F4F90E080E021E030E07E
:1001A000A191A29FB001A39F700D1124860F971FEC
:1001B000220F331FE417F50799F70895089529B121
:1001C00030E0FC018081A90102C0559547958A95D0
:1001D000E2F7CA0181700895E89AE9E6F0E08081CB
:1001E0008260808378940895E898F89408952AB1FD
:1001F000FC01308181E090E001C0880F3A95EAF778
:10020000809582238AB978940895FC0160830C94C8
:10021000F70010927C0086E880937A00089510928F
:100220007A00089580917C00807E80937C0080918C
:100230007C006770682B60937C0080917A008064FA
:1002400080937A0080917A0084FFFCCF80917A00BD
:10025000806180937A00209178008091790090E00D
:10026000982F8827820F911D08950F93FC01DA01C2
:1002700071836083228303833C9141E050E0CA0193
:1002800001C0880F2A95EAF701C0440F0A95EAF7E2
:10029000842B832B8C930F910895FC01A081B18155
:1002A0002C91328181E090E0AC0101C0440F3A957D
:1002B000EAF7242B2C93A081B1812C91338101C0CA
:1002C000880F3A95EAF7809582238C930895FC0174
:1002D000A081B1812C91338181E090E0AC0101C01B
:1002E000440F3A95EAF7242B2C93A081B1812C91ED
:1002F000328101C0880F3A95EAF7809582238C936A
:100300000895CF93DF93D82FC92F0E944D018FE11D
:100310009EE40197F1F700C000008D2F9C2F0E94F2
:1003200067018FE097E20197F1F700C00000DF91CD
:10033000CF910895FC01A081B1814C91838121E08E
:1003400030E0B90102C0660F771F8A95E2F7CB0152
:10035000928101C0220F9A95EAF7822B809584231F
:100360008C930895089580EA809300011092B9005B
:1003700080E28093B8000895FC0180E88083CF017B
:100380000C94B301982F9370891305C0880F806A6D
:100390008093000108958FEF0895FA0194EA24E80C
:1003A0009093BC008091BC0087FFFCCF809100013E
:1003B0008093BB002093BC008091BC0087FFFCCFE2
:1003C0008091B900883161F784EA8093BC00809104
:1003D000BC0087FFFCCF809100018093BB0084E8C4
:1003E0008093BC008091BC0087FFFCCF7093BB0062
:1003F00084E88093BC008091BC0087FFFCCF6093B1
:10040000BB0084E88093BC008091BC0087FFFCCFD8
:100410008091BC0087FFFCCF84EA8093BC00809170
:10042000BC0087FFFCCF809100018F5F8093BB00F1
:1004300084E88093BC008091BC0087FFFCCF84E8F7
:100440008093BC008091BC0087FFFCCF8091BB00F3
:10045000808384E98093BC0080E0089594EA34E8C6
:100460009093BC008091BC0087FFFCCF809100017D
:100470008093BB003093BC008091BC0087FFFCCF11
:100480008091B900883161F784EA8093BC00809143
:10049000BC0087FFFCCF809100018093BB0084E803
:1004A0008093BC008091BC0087FFFCCF7093BB00A1
:1004B00084E88093BC008091BC0087FFFCCF6093F0
:1004C000BB0084E88093BC008091BC0087FFFCCF18
:1004D00084EA8093BC008091BC0087FFFCCF8091B0
:1004E00000018F5F8093BB0084E88093BC00809103
:1004F000BC0087FFFCCF84EC211105C084E9809308
:10050000BC0080E00895213009F484E88093BC00A9
:100510009091BC0097FFFCCFFA019091BB009193A2
:100520002150AF01E9CF94EA24E89093BC00809178
:10053000BC0087FFFCCF809100018093BB0020931B
:10054000BC008091BC0087FFFCCF8091B90088314E
:1005500061F784EA8093BC008091BC0087FFFCCFE8
:10056000809100018093BB0084E88093BC0080915F
:10057000BC0087FFFCCF7093BB0084E88093BC0075
:100580008091BC0087FFFCCF6093BB0084E8809320
:10059000BC008091BC0087FFFCCF4093BB0084E887
:1005A0008093BC008091BC0087FFFCCF84E98093DE
:1005B000BC0080E00895FB01260F372F311DDC01C0
:1005C0008C918150990B862B9F2B2817390718F097
:1005D0009C012F5F3F4F822F8E1B24EA34E820932B
:1005E000BC009091BC0097FFFCCF909100019093CC
:1005F000BB003093BC009091BC0097FFFCCF909162
:10060000B900983161F794EA9093BC009091BC00D6
:1006100097FFFCCF909100019093BB0094E89093DA
:10062000BC009091BC0097FFFCCFF093BB0094E816
:100630009093BC009091BC0097FFFCCFE093BB006F
:1006400094E89093BC009091BC0097FFFCCF982F4A
:1006500024E8911104C094E99093BC000895FA0134
:1006600031913093BB002093BC003091BC0037FF28
:10067000FCCF9150AF01EDCFDF92EF92FF920F933D
:100680001F93CF93DF93D82ED92F7B018A01C22FDE
:100690002C2FA801B7018D2D9D2F0E94DB02282F42
:1006A00030E0E20EF31EC81B020F131FC111F0CF82
:1006B00080E0DF91CF911F910F91FF90EF90DF903D
:1006C0000895E0EBF0E080818F7B8083E1EBF0E048
:1006D0008081867F808308958AB1806C8AB9109268
:1006E000B200E0EBF0E0808182648083E1EBF0E037
:1006F00080818A6080830895FC01108211821282B9
:10070000138288EB91E09583848380E090E0AAE8EF
:10071000B2E486839783A087B1878CE0828782E0EA
:10072000838780E091E095878487CF010C946C03E8
:10073000DF92EF92FF920F931F93CF93DF9300D03E
:1007400000D000D0CDB7DEB78D839E83E1EBF0E023
:100750008081866080835F9AAD81BE811B961C91EB
:100760009B0150E040E029833A834B835C83CA01BC
:100770000E949B0DAD81BE8116962D913D914D91AC
:100780005C91199769837A838B839C8369817A81D1
:100790008B819C810E948D0CD62EE72EF82E092F7E
:1007A000ED81FE818285282F30E050E040E02983F2
:1007B0003A834B835C83CA01B9010E949D0D9B0162
:1007C000AC01D982EA82FB820C8369817A818B81B8
:1007D0009C810E94FA0CD62EE72EF82E092F812F2D
:1007E00090E0B0E0A0E089839A83AB83BC83BC0136
:1007F000CD010E949B0D2D2D3E2D4F2D502F698335
:100800007A838B839C8369817A818B819C810E940E
:10081000960ED62EE72EF82E092FAD81BE811496A6
:100820008D919C919C0150E040E029833A834B8359
:100830005C83CA01B9010E949B0D2D2D3E2D4F2DC9
:10084000502F69837A838B839C8369817A818B8122
:100850009C810E94290ED62EE72EF82E092F462FB6
:10086000572F682F792FAD81BE814D935D936D9386
:100870007C9313971C962D913C91129FC001139F5E
:10088000900D11249C0150E040E029833A834B8372
:100890005C83CA01B9010E949B0D2D2D3E2D4F2D69
:1008A000502F69837A838B839C8369817A818B81C2
:1008B0009C810E94290E9B01AC0160E074E284EFF0
:1008C0009AE40E94FA0C20E030E040E85FE369839C
:1008D0007A838B839C8369817A818B819C810E943E
:1008E0008D0C69837A838B839C8369817A818B8168
:1008F0009C810E946C0D6093B30026960FB6F8940D
:10090000DEBF0FBECDBFDF91CF911F910F91FF9042
:10091000EF90DF900895E1EBF0E08081897F8083A4
:100920000895FC0171836083709385006093840057
:1009300008951092850010928400E1E8F0E0808133
:100940008560808308951092850010928400E1E80C
:10095000F0E08081816080830895E1E8F0E08081AB
:100960008B7F808380818E7F80830895E4E8F0E030
:100970008081918111821082089550938900409363
:100980008800E0E8F0E0808180648083E1E8F0E0C6
:100990008081862B886080830895E1E8F0E0808183
:1009A0008A7F8083109285001092840008951092AF
:1009B00085001092840081EA97E0909389008093EB
:1009C000880010928000E1E8F0E080818D608083F3
:1009D00010928200EFE6F0E08081826080830895CB
:1009E000E1E8F0E080818E7F808308950C94F0042C
:1009F0000895509389004093880030938B00209392
:100A00008A001092800060938100089580916F00A9
:100A1000662321F0866080936F000895897FFBCF65
:100A200084E690E09093890080938800E0E8F0E00D
:100A3000808180648083E1E8F0E080818960808348
:100A400008951092850010928400E1E8F0E0808122
:100A50008A7F8083EFE6F0E08081897F808308953C
:100A60001092C5008FEC8093C400E0ECF0E0808130
:100A700080628083E1ECF0E0808188618083E2EC39
:100A8000F0E080818660808308959091C00095FF9A
:100A9000FCCF8093C60008958091C00087FFFCCFF3
:100AA0008091C60008950F931F93CF93DF93EC01BD
:100AB0008C01060F111DC017D10729F4DF91CF91CA
:100AC0001F910F910895899190E00E944505F3CF01
:100AD0000F931F93CF93DF93CDB7DEB728970FB651
:100AE000F894DEBF0FBECDBF9F938F9381E091E05E
:100AF0009F938F931F9288E08F938E010F5F1F4FFC
:100B00001F930F930E941B1068E0C8010E945305B9
:100B10000FB6F894DEBF0FBECDBF28960FB6F8947F
:100B2000DEBF0FBECDBFDF91CF911F910F91089512
:100B30001F93CF93DF93EC0110E0812F90E0FE0133
:100B400001900020E9F73197EC1BFD0B8E179F07F2
:100B500020F0DF91CF911F9108958C0F9D1FFC0114
:100B6000808190E00E9445058FE097E20197F1F7C0
:100B700000C000001F5FE1CF0C949805F89484B189
:100B8000886784B984B5816A84BD85B5826085BD76
:100B9000789408950895EFEF6E9FC001112424E624
:100BA00030E0B9010E94730C67BD4E9FC001112453
:100BB000B9010E94730C68BD08959C0195B19F799D
:100BC00095B9C9010C94CB052D9A2E980C94CB05A0
:100BD0002D982E9A0C94CB059C0195B1906695B9F1
:100BE000C9010C94CB0517BC18BC08950E94E805F8
:100BF0002FEF87E893E1215080409040E1F700C05B
:100C0000000017BC18BC08950E94E4052FEF87E888
:100C100093E1215080409040E1F700C0000017BCF4
:100C200018BC08950C940406CF93DF93EC010E9446
:100C3000090182E0898381E08A8385E08B8385E0F6
:100C400090E09D838C838CE390E09F838E8324E0EF
:100C500031E0398728879B878A87DF91CF91089574
:100C6000FF920F931F93CF93DF93EC010998F12C20
:100C700010E000E06B81F61658F070E0C8010E94A9
:100C80005F0CCB01DF91CF911F910F91FF900895E1
:100C90006A81CE010E941201298102C09695879532
:100CA0002A95E2F7080F191F8FE097E20197F1F7F5
:100CB00000C00000F394DECFCF93DF93EC010E94DD
:100CC00030069C018E819F812817390730F081E022
:100CD000488559854217530708F480E0DF91CF918A
:100CE0000895FC01608308952AB1FC01308181E000
:100CF00090E001C0880F3A95EAF7809582238AB97F
:100D00000895C90147305105A1F42251310923301A
:100D1000310520F485E091E00C94BC05813191050A
:100D200019F489E091E0F8CF459751F58DE091E015
:100D3000F3CF4830510549F48B7F419719F481E195
:100D400091E0EACF85E191E0E7CF4930510559F4D0
:100D5000215131092230310518F04497029790F75C
:100D600087E191E0D9CF4A30510561F7225131092D
:100D70002330310578F28531910599F24197B1F22E
:100D80000895C90147305105A1F42251310923309A
:100D9000310520F485E091E00C94BC05813191058A
:100DA00019F489E091E0F8CF459751F58DE091E095
:100DB000F3CF4930510549F48B7F419719F481E114
:100DC00091E0EACF85E191E0E7CF4830510559F451
:100DD000215131092230310518F04497029790F7DC
:100DE00087E191E0D9CF4A30510561F722513109AD
:100DF0002330310578F28531910599F24197B1F2AE
:100E00000895C90141315105A1F42251310923301E
:100E1000310520F485E091E00C94BC058131910509
:100E200019F489E091E0F8CF459751F58DE091E014
:100E3000F3CF4231510549F48B7F419719F481E199
:100E400091E0EACF85E191E0E7CF4331510559F4D4
:100E5000215131092230310518F04497029790F75B
:100E600087E191E0D9CF4431510561F72251310931
:100E70002330310578F28531910599F24197B1F22D
:100E80000895C90141315105A1F42251310923309E
:100E9000310520F485E091E00C94BC058131910589
:100EA00019F489E091E0F8CF459751F58DE091E094
:100EB000F3CF4331510549F48B7F419719F481E118
:100EC00091E0EACF85E191E0E7CF4231510559F455
:100ED000215131092230310518F04497029790F7DB
:100EE00087E191E0D9CF4431510561F722513109B1
:100EF0002330310578F28531910599F24197B1F2AD
:100F000008952F923F924F925F926F927F928F92AD
:100F10009F92AF92BF92CF92DF92EF92FF920F9388
:100F20001F93CF93DF9300D000D000D0CDB7DEB7B2
:100F30003C014B014C83352EF22E8E010F5F1F4F6B
:100F4000C8010E9430052FEF89E698E121508040CA
:100F50009040E1F700C00000D12CC12C2801EC2CFE
:100F600086E892E00E944D01EFEFF0E722E0E150C9
:100F7000F0402040E1F700C0000086E892E00E94C7
:100F80009A0184ED8B8310E000E0EC2DF0E0FE830D
:100F9000ED83FAE1FE1508F4C3C1ED81FE81EE5E3A
:100FA000FC4E0C94870C011105C08BE191E00E946E
:100FB000BC0553C0043619F48FE191E0F8CF85E009
:100FC00091E0F5CF002319F0043609F0F0C081E17B
:100FD00091E0EDCF0023D9F30436C9F3063019F4BC
:100FE00083E291E0E4CF003219F487E291E0DFCFB1
:100FF0008B818B5D893108F0DAC08BE291E0D7CF2D
:10100000002329F3043619F3063019F0003209F0F1
:10101000CEC08FE291E0CBCF0A830023C1F2043629
:10102000B1F20630B1F30032A1F383E391E00B3269
:1010300009F4BDCF8A818E3519F487E391E0B7CFEB
:101040009B81923308F0B3C0AC80B32C212C80E09C
:101050002F1409F441C0882369F10F5F1F4F8B8162
:101060008F5F8B83893309F094CF83E091E00E94F6
:10107000BC059FEFC91AD90AECE1CE16D10409F0DC
:101080006ECF26960FB6F894DEBF0FBECDBFDF91B0
:10109000CF911F910F91FF90EF90DF90CF90BF9075
:1010A000AF909F908F907F906F905F904F903F9008
:1010B0002F900895F5019081953049F49281FA813D
:1010C0009F1305C08BE391E00E94BC0581E023944F
:1010D00023E0A20EB11CBCCF8111BFCF8FE391E002
:1010E00066CF0A83002309F472CF043609F46FCF68
:1010F000063009F48ECF003209F48BCF0B3211F099
:101100000E3519F483E491E052CF9B819233F0F4D1
:10111000AC80B32C212C80E02F1409F48BC08111FA
:101120009CCFF50190819E1560F491819E1548F049
:101130009281FA819F1305C083E491E00E94BC056F
:1011400081E0239423E0A20EB11CE6CF8B81855E63
:10115000853068F581E08816910439F49801A6017C
:10116000B201C3010E94810678CF92E089169104F2
:10117000F1F49801A601B201C3010E94C1066DCF2E
:10118000802F002309F423CF043609F420CF063042
:1011900009F43FCF0B3219F487E491E008CF9B812B
:1011A0009A5F953008F49ACF8E3509F4ABCF85E17C
:1011B00091E0FDCE802F002309F409CF043609F415
:1011C00006CF063009F425CF0B3271F79BCF0A8387
:1011D000002309F4FCCE043609F4F9CE063009F4F4
:1011E00018CF003209F415CF0B3209F48BCF0E352E
:1011F00009F488CFFB81F23300F5AC80B32C212CAD
:1012000080E02F14B9F0811128CFF5019081E91603
:1012100060F49181E91648F09281FA819F1305C02C
:1012200083E491E00E94BC0581E0239423E0A20EB8
:10123000B11CE7CF811111CFBACF8B81855E85308C
:1012400008F0B5CF83E08816910439F49801A6011F
:10125000B201C3010E94010700CF94E089169104F6
:1012600009F0A5CF9801A601B201C3010E94410770
:10127000F4CE0A83002309F4AACE043609F4A7CEDB
:10128000063009F4C6CE003209F4C3CE8BE491E0F7
:101290000B3209F48CCEFA818FE491E0FE3509F42B
:1012A00086CE2B812233D8F4AC80B32C212C80E065
:1012B0002F1409F411CF8111D0CEF5019081953111
:1012C00049F49281FA819F1305C083E591E00E9461
:1012D000BC0581E0239423E0A20EB11CE9CF85E197
:1012E00091E00E949805B9CE002309F470CE04362F
:1012F00009F46DCE063019F487E591E058CE00323E
:1013000009F076CE8BE591E052CE011103C08FE556
:1013100091E04DCE043609F052CE83E691E047CEFF
:1013200001119BCE87E691E042CE82E891E00E94D7
:1013300074060E94BF0087E891E00E943006EC012D
:101340000AE010E087E891E00E943006C80FD91F3C
:1013500001501109B9F7C03322E0D20708F451C097
:1013600082E090E08093A5019093A60187E891E048
:101370000E9430069C01C397049708F050C081EA90
:1013800091E00E94F305FFEF24E34CE0F150204090
:101390004040E1F700C0000087E891E00E9430067D
:1013A0009C014A9708F460C08091AE019091AF0112
:1013B00001969093AF018093AE0144E664E681EA22
:1013C00091E00E94E8058FE094EA0197F1F700C0F0
:1013D000000049E362E481EA91E00E94E8059FE7AA
:1013E000EAE1F6E09150E040F040E1F700C0000093
:1013F00081EA91E00E94F30587E891E00E943006BF
:10140000C2CFCE016AE070E00E945F0C63537109A5
:1014100081E06430710508F0A4CF80E0A2CF44E6FB
:1014200064E681EA91E02833310578F00E94EC050A
:101430008FE19EE40197F1F700C000004CE260E309
:1014400081EA91E00E94EC0591CF0E94DD05EFE179
:10145000FEE43197F1F700C000004CE260E381EA5E
:1014600091E00E94DD0582CF2750310923313105FB
:1014700008F089CF81EA91E00E94F305B5E14B2E97
:10148000512CC8E06C2E712CD4E0ED2EF12CCC2424
:10149000C394D12C02E0A02EB12CC3E0D0E085E0B3
:1014A000882E912CE0917C01F0917D01EA30F105CC
:1014B000E8F7E85FFC4E0C94870C8091B001282E71
:1014C000312C10E000E0021513050CF4E5C020916A
:1014D000B3012150330BC901BE010E94730C60930C
:1014E000A801220F331FF901E85AFD4F8081918135
:1014F0006817790709F0F2C070927D0160927C0153
:10150000D1CF8EE791E00E94670185E891E00E94CB
:10151000DF00882339F2D0927D01C0927C01C2CFD6
:1015200060E570E083E991E00E9498032FE748E3CB
:1015300081E0215040408040E1F700C0000083E995
:1015400091E00E948B049FE7E8E3F1E09150E040D6
:10155000F040E1F700C000008091AC019091AD0136
:101560009C012F5F3F4F029729F03093AD012093EC
:10157000AC0198CF1092AD011092AC01B0927D01F8
:10158000A0927C018FCF8EE791E00E949A012FEF0D
:1015900044E38CE0215040408040E1F700C000006F
:1015A000D0937D01C0937C017DCF809185028823FB
:1015B00009F478CFF0927D01E0927C0173CF88E14D
:1015C00090E0E7ECF0E03197F1F700C000002091E7
:1015D0008502222351F02091B6013091B7012F5F8F
:1015E0003F4F3093B7012093B601019751F7809197
:1015F000B6019091B7011092B7011092B6014297CF
:1016000078F290927D0180927C014CCF87EC90E043
:101610000197F1F700C000008091B6019091B701E9
:1016200001969093B7018093B60120918502211114
:10163000EDCF9C0123503109223F314050F486E028
:1016400090E090937D0180937C012CCF90E080E02E
:10165000E8CF853F914008F425CF87E090E0F1CFB7
:101660002091B6013091B7018091B0012B30310546
:1016700050F0E82FF0E0E653FE4F91E090838F5F4B
:101680008093B001BECF2A303105C9F3E82FF0E0D6
:10169000E653FE4F1082F3CFF801E653FE4F87E08A
:1016A000AEE7B2E001900D928A95E1F78EE792E005
:1016B0000E94C8009C018093A7018091B301E82F8C
:1016C000F0E0EE0FFF1FE85AFD4F332731832083F0
:1016D0008F5F8093B301095F1F4FF5CEE9E0F0E023
:1016E000F0937D01E0937C01DDCE64E370E083E95B
:1016F00091E00E949803FFEF29E648E1F150204075
:101700004040E1F700C0000083E991E00E948B04B3
:1017100010927D0110927C01C5CE8EE791E00E946F
:101720004D0185E891E00E94DF008823D1F380918C
:10173000B0018750990BB2010E94730C262F609361
:10174000A9018091B401A8EBB1E0962F990F960FF3
:10175000980F98131EC09093B4018091A5019091A9
:10176000A60181309105D9F58091AE019091AF012C
:101770000C9784F1D093AB01C093AA016091AA01A8
:101780007091AB0148EB51E084EA91E00E9481073F
:10179000B3CEE82FF0E0EE0FFF1FE85AFD4F308187
:1017A0003C93E1E0E80FF0E0EE0FFF1FE85AFD4F39
:1017B000308111963C931197E2E0E80FF0E0EE0FD4
:1017C000FF1FE85AFD4F308112963C9312978D5FB0
:1017D0001396BFCFB092AB01A092AA01CFCF0297D0
:1017E00069F68091AE019091AF010C972CF0D092E8
:1017F000AB01C092AA01C2CFF092AB01E092AA0164
:10180000BDCF0F9383EA91E00E94300582EA91E018
:101810000E94BC0181EA91E00E94BE0583E991E04B
:101820000E947C0387E891E00E94140686E891E01C
:101830000E94090162E085E891E00E94050170E0E4
:1018400060E083E891E00E94910463E082E891E027
:101850000E94710601E020E044E250E065E270E0A1
:101860008EE791E00E9435010F91089583E891E0A1
:101870000E94F80485E891E00E94DE0086E891E08D
:101880000E940F0187E891E00E940F0183E991E037
:101890000E94610381EA91E00E94CA0582EA91E018
:1018A0000C94B2010F9301E020E044E250E065E2C5
:1018B00070E086E892E00E9435010F910895AA1B1E
:1018C000BB1B51E107C0AA1FBB1FA617B70710F02B
:1018D000A61BB70B881F991F5A95A9F7809590955D
:1018E000BC01CD01089597FB072E16F4009407D094
:1018F00077FD09D00E945F0C07FC05D03EF490955F
:1019000081959F4F0895709561957F4F0895EE0FD3
:10191000FF1F0590F491E02D09945058BB27AA278A
:101920000E94A50C0C94EF0D0E94E10D38F00E946E
:10193000E80D20F039F49F3F19F426F40C94DE0DE5
:101940000EF4E095E7FB0C94D80DE92F0E94000EF1
:1019500058F3BA17620773078407950720F079F4E4
:10196000A6F50C94220E0EF4E0950B2EBA2FA02DA6
:101970000B01B90190010C01CA01A0011124FF273C
:10198000591B99F0593F50F4503E68F11A16F04037
:10199000A22F232F342F4427585FF3CF4695379536
:1019A0002795A795F0405395C9F77EF41F16BA0BFB
:1019B000620B730B840BBAF09150A1F0FF0FBB1FA9
:1019C000661F771F881FC2F70EC0BA0F621F731FF2
:1019D000841F48F4879577956795B795F7959E3F4F
:1019E00008F0B0CF9395880F08F09927EE0F9795E0
:1019F000879508950E940E0D0C94EF0D0E94E80D3E
:101A000058F00E94E10D40F029F45F3F29F00C945A
:101A1000D80D51110C94230E0C94DE0D0E94000E73
:101A200068F39923B1F3552391F3951B550BBB270D
:101A3000AA2762177307840738F09F5F5F4F220F52
:101A4000331F441FAA1FA9F335D00E2E3AF0E0E849
:101A500032D091505040E695001CCAF72BD0FE2F93
:101A600029D0660F771F881FBB1F26173707480727
:101A7000AB07B0E809F0BB0B802DBF01FF279358DF
:101A80005F4F3AF09E3F510578F00C94D80D0C94BE
:101A9000230E5F3FE4F3983ED4F3869577956795E0
:101AA000B795F7959F5FC9F7880F911D9695879514
:101AB00097F90895E1E0660F771F881FBB1F621733
:101AC00073078407BA0720F0621B730B840BBA0BF1
:101AD000EE1F88F7E09508950E94080E88F09F5742
:101AE00098F0B92F9927B751B0F0E1F0660F771F42
:101AF000881F991F1AF0BA95C9F714C0B13091F038
:101B00000E94220EB1E008950C94220E672F782FC8
:101B10008827B85F39F0B93FCCF3869577956795FC
:101B2000B395D9F73EF490958095709561957F4F68
:101B30008F4F9F4F0895E89409C097FB3EF490950E
:101B40008095709561957F4F8F4F9F4F9923A9F096
:101B5000F92F96E9BB279395F69587957795679525
:101B6000B795F111F8CFFAF4BB0F11F460FF1BC069
:101B70006F5F7F4F8F4F9F4F16C0882311F096E9FC
:101B800011C0772321F09EE8872F762F05C06623AA
:101B900071F096E8862F70E060E02AF09A95660F63
:101BA000771F881FDAF7880F9695879597F908951C
:101BB00097F99F6780E870E060E008959FEF80EC00
:101BC000089500240A9416161706180609060895A3
:101BD00000240A9412161306140605060895092E09
:101BE0000394000C11F4882352F0BB0F40F4BF2B78
:101BF00011F460FF04C06F5F7F4F8F4F9F4F0895B8
:101C000057FD9058440F551F59F05F3F71F04795AD
:101C1000880F97FB991F61F09F3F79F08795089592
:101C2000121613061406551FF2CF4695F1DF08C0B1
:101C3000161617061806991FF1CF869571056105CE
:101C400008940895E894BB2766277727CB0197F976
:101C500008950E943C0E0C94EF0D0E94E10D38F0A7
:101C60000E94E80D20F0952311F00C94D80D0C94EF
:101C7000DE0D11240C94230E0E94000E70F3959F2C
:101C8000C1F3950F50E0551F629FF001729FBB2773
:101C9000F00DB11D639FAA27F00DB11DAA1F649F0F
:101CA0006627B00DA11D661F829F2227B00DA11DC2
:101CB000621F739FB00DA11D621F839FA00D611D48
:101CC000221F749F3327A00D611D231F849F600D69
:101CD000211D822F762F6A2F11249F5750409AF092
:101CE000F1F088234AF0EE0FFF1FBB1F661F771F1E
:101CF000881F91505040A9F79E3F510580F00C94E9
:101D0000D80D0C94230E5F3FE4F3983ED4F38695F0
:101D100077956795B795F795E7959F5FC1F7FE2B88
:101D2000880F911D9695879597F90895FA01EE0F02
:101D3000FF1F309621053105A1F16115710561F490
:101D40008038BFE39B0749F168949038810561F0C2
:101D50008038BFEF9B0741F099234AF5FF3FE1052B
:101D60003105210519F1E8940894E795D901AA23D2
:101D700029F4AB2FBE2FF85FD0F310C0FF5F70F4D3
:101D8000A695E0F7F73950F019F0FF3A38F49F774D
:101D90009F930DD00F9007FC9058089546F00C9437
:101DA000DE0D60E070E080E89FE308954FE79F77E5
:101DB0005F934F933F932F930E94910F2F913F91E9
:101DC0004F915F910E94290E0C94EE0E29F416F0AB
:101DD0000C94D80D0C94220E0C94DE0D0E94080E6B
:101DE000A8F39638A0F707F80F92E8942BE33AEAA5
:101DF00048EB5FE70E943F0E0F920F920F924DB794
:101E00005EB70F920E94D90FECE7F0E00E94200F1E
:101E10004F915F91EF91FF91E595EE1FFF1F49F004
:101E2000FE57E0684427EE0F441FFA95E1F741950D
:101E3000550B0E94530F0F9007FE0C94470F089507
:101E4000DF93CF931F930F93FF92EF92DF927B016B
:101E50008C01689406C0DA2EEF010E943C0EFE0150
:101E6000E894A5912591359145915591A6F3EF01FF
:101E70000E94A50CFE019701A801DA9469F7DF9092
:101E8000EF90FF900F911F91CF91DF9108959B01EB
:101E9000AC0160E070E080E89FE30C94FA0C0C94D5
:101EA000D80D0C940D100E94080ED8F39923C9F395
:101EB000940F511DA3F39150504094F059F0882392
:101EC00032F0660F771F881F91505040C1F79E3F38
:101ED00051052CF7880F911D9695879597F90895D0
:101EE0005F3FACF0983E9CF0BB2786957795679551
:101EF000B79508F4B1609395C1F7BB0F58F711F48B
:101F000060FFE8CF6F5F7F4F8F4F9F4FE3CF0C9401
:101F1000230E16F00C940D100C94DE0D68940C94A6
:101F2000D80D0E94080EA8F39923C1F3AEF3DF93F6
:101F3000CF931F930F93FF92C92FDD2788232AF099
:101F40002197660F771F881FDAF720E030E040E81E
:101F50005FEB9FE3883920F0803E38F021968F7741
:101F60000E948E0CE4EAF0E004C00E948E0CE1EDC9
:101F7000F0E00E94200F8B01BE01EC01FB2E6F5799
:101F800071097595771F880B990B0E949D0D28E1AB
:101F900032E741E35FE30E943C0EAF2D9801AE01B2
:101FA000FF900F911F91CF91DF910E94A50C0C948F
:101FB000EF0DFA01DC01AA0FBB1F9B01AC01BF575B
:101FC00028F4222733274427507820C0B75190F4B3
:101FD000AB2F0024469537952795011CA395D2F386
:101FE000002071F0220F331F441FB395DAF30ED097
:101FF0000C948D0C61307105A0E88A07B94630F465
:102000009B01AC016627772788279078309621F0CE
:10201000208331834283538308959F3F31F0915051
:1020200020F4879577956795B795880F911D9695BC
:10203000879597F90895AEE0B0E0E1E2F0E10C9405
:10204000D2120D891E8986E08C831A8309838F89B9
:10205000988D813020E8920710F080E090E8019799
:102060009E838D83AE01455E5F4F698D7A8DCE0173
:1020700001960E944D104D815E8157FD0AC02F814F
:102080003885421753070CF49A01020F131FF80109
:1020900010822E96E4E00C94EE12AFE0B0E0E3E59F
:1020A000F0E10C94C4127C013B018A01DC0117961B
:1020B0001C921E92169713968C9181FFBEC19AE0D6
:1020C000292EFE0131964F01D70113969C91F30101
:1020D00093FD859193FF81913F01882309F444C1C9
:1020E000853239F493FD859193FF81913F018532CB
:1020F00029F4B70190E00E943612E6CFB12C412CB2
:10210000512CBFE1B51538F08B3209F188F48032DB
:1021100001F1833221F157FC3AC020ED280F2A301B
:1021200040F556FE1FC0B29C200D1124B22E06C0F1
:102130008D3291F0803379F7689450F8F30193FD74
:10214000859193FF81913F018111DBCF20C068947D
:1021500051F8689452F8F2CF689453F8EFCF68942E
:1021600054F8ECCF429C200D1124422E689455F86F
:10217000E5CF8E3229F456FCF7C0689456F8DECFCE
:102180008C3619F4689457F8D9CF8836B9F2982F5D
:102190009F7D95549330C0F0833681F18337A1F150
:1021A000833509F05BC0D801CD90DD908D016B2D9A
:1021B00070E056FC02C06FEF7FEFC6010E94201254
:1021C0005C01689457F80AC00C5F1F4FEFE3E98386
:1021D000AA24A394B12C6401E89457F853FE29C0B3
:1021E000342CA114B10451F5332009F46DCFB7019B
:1021F00080E290E00E9436123A94F6CFD8018C919A
:1022000089830E5F1F4FE4CFF801C190D1908F01F9
:102210006B2D70E056FC02C06FEF7FEFC6010E948D
:102220002B125C01D9CFB70180E290E00E943612F8
:102230004A944A141B0409F0B0F7D2CFF60157FCB8
:10224000859157FE81916F01B70190E00E9436128F
:1022500031103A94B1E0AB1AB108C3CF843619F00B
:10226000893609F071C0F80157FE67C0619171911C
:10227000819191918F01E52DEF76DE2E97FF09C0B8
:1022800090958095709561957F4F8F4F9F4F689483
:10229000D7F82AE030E0A4010E946612C82EC818C0
:1022A000AC2C5D2CD6FE0CC0E89450F8CB1440F456
:1022B000D4FE05C0D2FC03C05D2D5E7E552EAB2C36
:1022C00054FE93C0FE01EC0DF11D8081803309F0B6
:1022D00085C0652D697E562E752D7870372E53FC7E
:1022E00093C050FE8DC0BC2CA41410F4B40CBA18CA
:1022F00054FE90C0B70180E390E00E94361252FE77
:1023000007C088E751FC88E590E0B7010E943612CB
:10231000CB1408F48BC0CA94D12C8FEFC81AD80AFA
:10232000C80CD91CD6018E916D01B70190E00E94B6
:1023300036128C149D04B1F757CF61917191072E1D
:10234000000C880B990B96CFD52CE894D4F82AE092
:10235000853729F1F52DF97FDF2E8037A1F058F46C
:102360008835A1F08F36D1F0F701868197812F96BD
:10237000E2E10C94E0128837B9F7D4FE02C0689409
:10238000D2F820E10CC06894D4F8F7CF54FE03C013
:102390002F2F2660D22E20E132E002C028E030E06C
:1023A000F801D7FE15C041915191619171914C870F
:1023B0005D876E877F878F01A4016C857D858E8503
:1023C0009F850E946612C82EC818E894D7F868CF77
:1023D00081919191AC0170E060E0E9CF52FC02C0C4
:1023E000A3947ACFA394A39477CF852D867809F40C
:1023F00073CFF6CFB70180E290E00E943612A3942B
:10240000A414C0F3312C74CF342C3A18A41408F45B
:102410006FCFF8CF852D867809F47ACF8BE251FE05
:1024200080E257FC8DE2B70190E070CFB70180E306
:1024300090E00E943612BA946BCF8FEF9FEF97CF48
:10244000FC010590615070400110D8F7809590957F
:102450008E0F9F1F0895FC01615070400190011084
:10246000D8F7809590958E0F9F1F08950F931F9317
:10247000CF93DF93182F092FEB018B8181FD09C0CA
:102480001FEF0FEF812F902FDF91CF911F910F91B1
:10249000089582FF14C02E813F818C819D81281771
:1024A00039073CF4E881F981CF010196998388834B
:1024B00010838E819F8101969F838E83E3CFE88571
:1024C000F985812F0995892BA1F3DACFFA01AA2783
:1024D000283051F1203181F1E8946F936E7F6E5F67
:1024E0007F4F8F4F9F4FAF4FB1E03ED0B4E03CD015
:1024F000670F781F891F9A1FA11D680F791F8A1FF8
:10250000911DA11D6A0F711D811D911DA11D20D05E
:1025100009F468943F912AE0269F11243019305D18
:102520003193DEF6CF010895462F4770405D419309
:10253000B3E00FD0C9F7F6CF462F4F70405D4A3356
:1025400018F0495D31FD4052419302D0A9F7EACF1E
:10255000B4E0A6959795879577956795BA95C9F74D
:1025600000976105710508959B01AC010A2E069440
:102570005795479537952795BA95C9F7620F731FF9
:10258000841F951FA01D08952F923F924F925F9236
:102590006F927F928F929F92AF92BF92CF92DF9273
:1025A000EF92FF920F931F93CF93DF93CDB7DEB7D8
:1025B000CA1BDB0B0FB6F894DEBF0FBECDBF09946C
:1025C0002A88398848885F846E847D848C849B84C3
:1025D000AA84B984C884DF80EE80FD800C811B81D1
:1025E000AA81B981CE0FD11D0FB6F894DEBF0FBE00
:1025F000CDBFED01089510E0C1E8D0E004C0FE01B8
:102600000E94870C2196C238D107C9F7F894FFCFF2
:10261000810A900AC30AD50ADF0A260B300B5D0A2D
:102620008D0B750BD307E207E207EA0700080C08D9
:10263000710871087108710871087108DA08C0081A
:10264000DA08E708E708E708E708E708E7083909CC
:0A26500000087409E207E20785099B
:10265A00A025640A00E2948000E295B100E295B2F6
:10266A0000E29482002000E2948600E2948C00E268
:10267A00949000E2948F00E2949300E2948100E245
:10268A00948300E2959400E2959700E295A600E211
:10269A00959000E2959100E295A300E2959A00E2F6
:1026AA00959D00E295A900E2949700E2949B00E2CE
:1026BA00949400E294980050726F64756974207063
:0C26CA0061723A20502E412E4D2E53001C
:00000001FF
