:100000000C9480000C94A8000C94A8000C94A800F8
:100010000C94A8000C94A8000C94A8000C94A800C0
:100020000C94A8000C94A8000C94A8000C94A800B0
:100030000C94A8000C94AA000C94A8000C94A8009E
:100040000C94A8000C94A8000C94A8000C94A80090
:100050000C94A8000C94A8000C94A8000C94A80080
:100060000C94A8000C94A8000C94A8000C94A80070
:100070000C94A8000C94A8000C94A80007634236C6
:10008000B79BD8A71A39685618AEBAAB558C1D3C29
:10009000B7CC5763BD6DEDFD753EF6177231BF00ED
:1000A0000000803F08000000BE922449123EABAA27
:1000B000AA2ABECDCCCC4C3E00000080BEABAAAA82
:1000C000AA3E00000000BF000000803F00000000CA
:1000D00000084178D3BB4387D1133D190E3CC3BD03
:1000E0004282AD2B3E68EC8276BED98FE1A93E4CB0
:1000F00080EFFFBE01C4FF7F3F0000000000B5108D
:1001000011241FBECFEFD8E0DEBFCDBF11E0A0E0CD
:10011000B1E0EEEFFAE202C005900D92A037B10710
:10012000D9F722E0A0E7B1E001C01D92A730B207E5
:10013000E1F710E0C0E8D0E004C02197FE010E9482
:10014000D610CF37D107C9F70E945A080C9455151D
:100150000C9400008F938FB78F939F93809101022F
:1001600090910202019690930202809301029F9166
:100170008F918FBF8F911895E1E8F0E080818B7FA0
:10018000808380818E7F8083EFE6F0E080818D7FA9
:1001900080830895DB01FC01E40FF51F30E020E0CF
:1001A000CD01022E02C0959587950A94E2F78170E1
:1001B00081932F5F3F4F2630310591F70895CF93FC
:1001C000DF93DB01FA0130E020E0811106C0273027
:1001D0003105A4F0DF91CF91089540815181BA019A
:1001E0006F5F7F4F718360834A0F5B1F982F917001
:1001F000EA01988386952F5F3F4FE7CF80819181F9
:10020000AC014F5F5F4F518340838A0F9B1FEC010E
:1002100018822F5F3F4FDBCF2EE8FC0111922A9509
:10022000E9F7089530990AC08FE59AEE0197F1F742
:1002300000C0000086B180958170089580E0089527
:10024000089529B130E0FC018081A90102C05595D3
:1002500047958A95E2F7CA0181700895E89AE9E620
:10026000F0E080818260808378940895E898F89423
:1002700008952AB1FC01308181E090E001C0880F2F
:100280003A95EAF7809582238AB978940895FC011B
:1002900060830C9439010F93FC01DA017183608350
:1002A000228303833C9141E050E0CA0101C0880FE2
:1002B0002A95EAF701C0440F0A95EAF7842B832BAD
:1002C0008C930F910895FC01A081B1812C91328112
:1002D00081E090E0AC0101C0440F3A95EAF7242B8D
:1002E0002C93A081B1812C91338101C0880F3A9564
:1002F000EAF7809582238C930895FC01A081B18157
:100300002C91338181E090E0AC0101C0440F3A951B
:10031000EAF7242B2C93A081B1812C91328101C06A
:10032000880F3A95EAF7809582238C930895CF93AE
:10033000DF93D82FC92F0E9463018FE19EE40197BC
:10034000F1F700C000008D2F9C2F0E947D018FE0EF
:1003500097E20197F1F700C00000DF91CF91089577
:10036000FC01A081B1814C91838121E030E0B90191
:1003700002C0660F771F8A95E2F7CB01928101C018
:10038000220F9A95EAF7822B809584238C93089507
:10039000E0EBF0E080818F7B8083E1EBF0E0808117
:1003A000867F808308958AB1806C8AB91092B200EA
:1003B000E0EBF0E0808182648083E1EBF0E080811B
:1003C0008A6080830895FC01108211821282138258
:1003D00088EB91E09583848380E090E0AAE8B2E422
:1003E00086839783A087B1878CE0828782E08387AA
:1003F00080E091E095878487CF010C94D301DF9250
:10040000EF92FF920F931F93CF93DF9300D000D012
:1004100000D0CDB7DEB78D839E83E1EBF0E0808125
:10042000866080835F9AAD81BE811B961C919B0183
:1004300050E040E029833A834B835C83CA010E94E9
:10044000BA0FAD81BE8116962D913D914D915C9173
:10045000199769837A838B839C8369817A818B81E5
:100460009C810E94A50ED62EE72EF82E092FED8135
:10047000FE818285282F30E050E040E029833A83D6
:100480004B835C83CA01B9010E94BC0F9B01AC0184
:10049000D982EA82FB820C8369817A818B819C817B
:1004A0000E94120FD62EE72EF82E092F812F90E0F2
:1004B000B0E0A0E089839A83AB83BC83BC01CD010B
:1004C0000E94BA0F2D2D3E2D4F2D502F69837A8318
:1004D0008B839C8369817A818B819C810E94F0103F
:1004E000D62EE72EF82E092FAD81BE8114968D9160
:1004F0009C919C0150E040E029833A834B835C83CC
:10050000CA01B9010E94BA0F2D2D3E2D4F2D502F3B
:1005100069837A838B839C8369817A818B819C81B7
:100520000E944810D62EE72EF82E092F462F572F5F
:10053000682F792FAD81BE814D935D936D937C9330
:1005400013971C962D913C91129FC001139F900D03
:1005500011249C0150E040E029833A834B835C8363
:10056000CA01B9010E94BA0F2D2D3E2D4F2D502FDB
:1005700069837A838B839C8369817A818B819C8157
:100580000E9448109B01AC0160E074E284EF9AE4A1
:100590000E94120F20E030E040E85FE369837A8335
:1005A0008B839C8369817A818B819C810E94A50EBB
:1005B00069837A838B839C8369817A818B819C8117
:1005C0000E948B0F6093B30026960FB6F894DEBF9F
:1005D0000FBECDBFDF91CF911F910F91FF90EF9094
:1005E000DF900895E1EBF0E08081897F80830895BA
:1005F000FC0171836083709385006093840008958B
:100600001092850010928400E1E8F0E0808185601E
:10061000808308951092850010928400E1E8F0E054
:100620008081816080830895E1E8F0E080818B7FA4
:10063000808380818E7F80830895E4E8F0E080816C
:10064000918111821082089550938900409388000F
:10065000E0E8F0E0808180648083E1E8F0E0808180
:10066000862B886080830895E1E8F0E080818A7FAE
:100670008083109285001092840008951092850066
:100680001092840081EA97E090938900809388001B
:1006900010928000E1E8F0E080818D60808310920C
:1006A0008200EFE6F0E08081826080830895E1E8D7
:1006B000F0E080818E7F808308950C945703089525
:1006C000509389004093880030938B0020938A00D8
:1006D0001092800060938100089580916F006623DE
:1006E00021F0866080936F000895897FFBCF84E6B8
:1006F00090E09093890080938800E0E8F0E08081AA
:1007000080648083E1E8F0E08081896080830895DF
:100710001092850010928400E1E8F0E080818A7FE9
:100720008083EFE6F0E08081897F808308951092D6
:10073000C5008FEC8093C400E0ECF0E08081806223
:100740008083E1ECF0E0808188618083E2ECF0E07E
:1007500080818660808308959091C00095FFFCCFD2
:100760008093C60008958091C00087FFFCCF8091E0
:10077000C60008950F931F93CF93DF93EC018C0174
:10078000060F111DC017D10729F4DF91CF911F91DA
:100790000F910895899190E00E94AC03F3CF0F93DD
:1007A0001F93CF93DF93CDB7DEB728970FB6F8949A
:1007B000DEBF0FBECDBF9F938F9380E091E09F93EC
:1007C0008F931F9288E08F938E010F5F1F4F1F93AF
:1007D0000F930E94751268E0C8010E94BA030FB619
:1007E000F894DEBF0FBECDBF28960FB6F894DEBFDB
:1007F0000FBECDBFDF91CF911F910F9108951F9331
:10080000CF93DF93EC0110E0812F90E0FE01019087
:100810000020E9F73197EC1BFD0B8E179F0720F0A6
:10082000DF91CF911F9108958C0F9D1FFC01808156
:1008300090E00E94AC038FE097E20197F1F700C0CF
:1008400000001F5FE1CF0C94FF03F89484B1886728
:1008500084B984B5816A84BD85B5826085BD78948C
:1008600008950895EFEF6E9FC001112424E630E053
:10087000B9010E94C21067BD4E9FC0011124B90189
:100880000E94C21068BD089585B18F7985B983EA49
:1008900087BD8DEA88BD089583EA87BD8FE788BD4F
:1008A00008958FE787BD8EE988BD089586E687BDE8
:1008B0008DEA88BD089585EA87BD86E688BD0895DE
:1008C0002D9A2E9889E987BD88BD08952D982E9A76
:1008D00089E987BD88BD089585B1806685B983EAB9
:1008E00087BD82EB88BD089517BC18BC08950E948F
:1008F00066042FE784E89EE1215080409040E1F7B4
:1009000000C0000017BC18BC08950E9460042FE7C7
:100910008FE492E1215080409040E1F700C0000058
:1009200017BC18BC08950E9460042FE786E693E286
:10093000215080409040E1F700C0000017BC18BC77
:100940000895CF93DF93D82FC92F0E9493048D2F42
:100950009C2FDF91CF910C9493040E946C0483EA46
:1009600087BD88BD08950E946C0486E987BD82EB2F
:1009700088BD08950F931F93CF93DF930F92CDB748
:10098000DEB78C010E94250482E0F801818388E0B3
:10099000828380E2838384E0848380E185838EE3A5
:1009A000868388EE93E09087878381B1817C81B9CB
:1009B000CE0101960E942504CE0101960E943104C9
:1009C0000F90DF91CF911F910F910895FC0190B18D
:1009D0008181982381E009F480E00895FC0190B1C1
:1009E0008481982381E009F480E00895FC0190B1AE
:1009F0008281982381E009F480E00895FC0190B1A0
:100A00008581982381E009F480E00895FC0190B18C
:100A10008381982381E009F480E008951F93CF93A8
:100A2000DF93182FD92F0E94E604C82F812F9D2F06
:100A30000E94EE048111CF5F812F9D2F0E94F6044A
:100A40008111CF5F812F9D2F0E94FE048111CF5F06
:100A5000812F9D2F0E9406058111CF5F8C2FDF9182
:100A6000CF911F910895FC0190B18681982381E078
:100A70009E3309F080E00895FC0190B186819823AF
:100A800081E009F080E00895CF93DF93D82FC92F3C
:100A90000E940605882371F08D2F9C2F0E9456041A
:100AA0008D2F9C2F0E94FE04882321F08D2F9C2FD8
:100AB0000E9451048D2F9C2F0E94FE04882321F058
:100AC0008D2F9C2F0E9451048D2F9C2F0E94F60485
:100AD000882321F08D2F9C2F0E9444048D2F9C2F62
:100AE0000E94EE04882321F08D2F9C2F0E944C043D
:100AF0008D2F9C2F0E94E604882381F08D2F9C2F40
:100B00000E945B048D2F9C2F0E94EE04882331F0FD
:100B10008D2F9C2FDF91CF910C944C04DF91CF91BE
:100B20000895CF93DF93D82FC92F8D2F9C2F0E942C
:100B30000605882371F08D2F9C2F0E9456048D2F5F
:100B40009C2F0E94FE04882321F08D2F9C2F0E9451
:100B500051048D2F9C2F0E94FE04882321F08D2F9D
:100B60009C2F0E9451048D2F9C2F0E94F6048823F5
:100B700031F08D2F9C2FDF91CF910C9474048D2F29
:100B80009C2F0E94EE04882321F08D2F9C2F0E9421
:100B90004C048D2F9C2F0E94E604882331F28D2F68
:100BA0009C2F0E945B048D2F9C2F0E94EE048823B3
:100BB00009F4BBCF8D2F9C2F0E944C04B6CFCF934E
:100BC000DF93D82FC92F0E94E604882351F08D2F80
:100BD0009C2F0E94B3048D2F9C2F0E94F604882323
:100BE000D1F3DF91CF910895CF93DF93D82FC92F01
:100BF0000E940605882351F08D2F9C2F0E94AD0482
:100C00008D2F9C2F0E94F6048823D1F3DF91CF9182
:100C10000895CF93DF93D82FC92F0E94060588230C
:100C200021F08D2F9C2F0E9460048D2F9C2F0E94FD
:100C3000E604882321F08D2F9C2F0E9466048D2FBF
:100C40009C2FDF91CF910C946C040F931F93CF9343
:100C5000DF9300D0CDB7DEB78C0170E060E00E947A
:100C6000F8028AB180638AB970E060E0CE01019633
:100C70000E94F80289819A81F80191838083CE01D4
:100C800001960E945F030F900F90DF91CF911F910B
:100C90000F91089548E650E061E00C9424030E940F
:100CA000570380E28BB90895CF93DF93D82FC92FD4
:100CB0000E944A062FEF83ED90E321508040904040
:100CC000E1F700C000008D2F9C2FDF91CF910C9495
:100CD0004F06CF93DF93D82FC92F0E944A068FEA81
:100CE00094E00197F1F700C000008D2F9C2F0E9427
:100CF0004F068FEA94E00197F1F700C00000DF9102
:100D0000CF910895CF93DF93D82FC92F0E944A0621
:100D10008FE599E00197F1F700C000008D2F9C2F1F
:100D20000E944F068FEA94E00197F1F700C000009F
:100D3000DF91CF910895CF93DF93D82FC92F0E94D1
:100D40004A068FEB92E10197F1F700C000008D2F6A
:100D50009C2F0E944F068FEA94E00197F1F700C0A4
:100D60000000DF91CF9108957F928F929F92AF9272
:100D7000BF92CF92DF92EF92FF920F931F93CF9388
:100D8000DF930F92CDB7DEB7C62E972ED42ECE01AD
:100D900001960E9497032FEF89E698E12150804049
:100DA0009040E1F700C0000000E083E092E00E9484
:100DB0006301EFEFF0E722E0E150F0402040E1F77F
:100DC00000C0000083E092E00E94B00184ED882E14
:100DD00010E0A02EB12C0B3108F067C1F501EC59E1
:100DE000FA4E0C94D61084E091E0112331F088E0A3
:100DF00091E0143611F08CE091E00E94230444C08D
:100E0000112319F0143609F0B9C080E191E0F5CF53
:100E10001123D9F31436C9F386E191E0163069F352
:100E20008AE191E0103249F389EF810F893108F0AE
:100E3000A5C08EE191E0E1CF112339F3143629F3F7
:100E4000163019F0103209F099C082E291E0D5CF46
:100E50001123D9F21436C9F21630B9F31032A9F3BE
:100E600086E291E01B3249F28AE291E01E3529F2D6
:100E700081E3881508F482C0EC2CF92C712C80E0F9
:100E80007D1479F18823E1F01F5F8394153609F012
:100E9000A2CF82E091E00E9423040F5F0C3109F0A1
:100EA00084CF0F90DF91CF911F910F91FF90EF9022
:100EB000DF90CF90BF90AF909F908F907F900895DC
:100EC000F7019081953041F49281911305C08EE233
:100ED00091E00E94230481E07394F3E0EF0EF11C93
:100EE000CFCF8111D1CF82E391E087CF112309F4D5
:100EF0008CCF143609F489CF163009F4A6CF1032FE
:100F000009F4A3CF1B3211F01E3519F486E391E0EA
:100F100074CF21E3281590F1EC2CF92C712C80E092
:100F20007D1409F46BC08111AFCFF7019081901748
:100F300058F49181901740F09281911305C086E397
:100F400091E00E94230481E07394F3E0EF0EF11C22
:100F5000E7CF112309F459CF143609F456CF1630D0
:100F600009F473CF8AE391E01B3209F446CF8AED8E
:100F7000810F853008F4B7CF1E3541F284E191E04E
:100F80003CCF112309F441CF143609F43ECF16307B
:100F900009F45BCF1B3281F7B9CF112309F435CFA8
:100FA000143609F432CF163009F44FCF103209F459
:100FB0004CCF1B3209F4AACF1E3509F4A7CF21E389
:100FC0002815E0F2EC2CF92C712C80E07D14B1F0A6
:100FD00081115ACFF7019081091758F491810917AF
:100FE00040F09281911305C086E391E00E942304B2
:100FF00081E07394F3E0EF0EF11CE8CF811144CF50
:10100000BDCF112309F401CF143609F4FECE1630FA
:1010100009F41BCF103209F418CF8EE391E01B3294
:1010200009F4EBCE82E491E01E3509F4E6CE21E32B
:101030002815D0F0EC2CF92C712C80E07D1409F4EB
:1010400050CF811121CFF7019081953141F49281E8
:10105000911305C086E491E00E94230481E073941B
:10106000F3E0EF0EF11CEACF84E191E00E94FF0370
:101070000BCF112309F4C9CE143609F4C6CE8AE485
:1010800091E0163009F4B9CE8EE491E0103209F007
:10109000CBCEB3CE82E591E0112309F4AECE86E546
:1010A00091E0143609F0A7CEA8CE1111EDCE8AE555
:1010B00091E0A3CECDB7DEB7C457D1090FB6F894EF
:1010C000DEBF0FBECDBF9E01285B3F4F60963FAF96
:1010D0002EAF60972A961FAE1EAE2A9722961FAE9D
:1010E000229723961FAE239724961FAE24971EAEF9
:1010F0001FAE21961FAE21971E013DE4230E311C29
:10110000C1010E9425043E014BE2640E711CC30123
:101110000E94BA04CE018A5B9F4F62969FAF8EAF4A
:10112000629770E060E00E94F802CE01845B9F4FFE
:101130000E949703DE01AC5BBF4F6496BFAFAEAFBA
:101140006497CD010E942506CE0143960E94E301DB
:1011500062E0CE01855B9F4F0E944701FE01F4963D
:101160006696FFAFEEAF669701E020E044E250E004
:1011700065E270E0CF010E944B013898A3961FAE44
:10118000A397A4961FAEA497F12CE12CA7961FAEAF
:10119000A797F1E0A296FFAFA297AC961FAEAC97CF
:1011A000AD961FAEAD97AE961FAEAE97AF961FAE83
:1011B000AF972F962FAD2F97AA962FAFAA9760962D
:1011C0003FAD6097AB963FAFAB97122D032D659661
:1011D0004FAD6597E4964FAFE49766965FAD66971F
:1011E000E5965FAFE597E0917001F0917101ED3008
:1011F000F105E8F7E95AFA4E0C94D610C3010E94A3
:101200004405C3010E943C056301882361F3812FDB
:10121000902F0E9444048FEF9EE9A4E281509040F9
:10122000A040E1F700C00000812F902F0E947404BD
:10123000BFEFE4E3FCE0B150E040F040E1F700C074
:101240000000C6010E940605882379F0C1010E94B2
:1012500074042FEF39E648E1215030404040E1F777
:1012600000C0000081E090E018C0C1010E9460044D
:10127000E8CFCE018A5B9F4F0E943E037894A496EC
:101280005FADA4975F5FA4965FAFA497523019F447
:10129000A2961FAEA29782E090E090937101809396
:1012A0007001A1CFC3010E944405C3010E9406053D
:1012B0006301882321F1C3010E94F6048823F9F019
:1012C000CE018A5B9F4F0E943403F8948091010203
:1012D00090910202E1E2F0E0EC0FFD1FA796AFADA6
:1012E000A797EA0FF11D8083AF5FA796AFAFA797CF
:1012F000109202021092010284E090E0CECFC6016B
:101300000E94E604882309F46ECFC6010E94F60409
:10131000882309F468CFC6010E940605811163CFB6
:1013200087E090E0BACF812F902F0E944404BFEF56
:10133000E5EAFEE0B150E040F040E1F700C0000017
:10134000C3010E943C05630181110AC086E090E060
:101350009093710180937001A4961FAEA49743CF20
:101360002FEF38EF45E1215030404040E1F700C019
:101370000000812F902F0E9474045FEF89E698E1AE
:10138000515080409040E1F700C00000C6010E942B
:101390000605882359F0C1010E947404AFEFB4E33D
:1013A000ECE0A150B040E040E1F75ACFC1010E940B
:1013B0006004ECCFA296FFADA297FF2309F46CC4A2
:1013C000E1E4F0E0EC0FFD1FEF0DF11D87E08083FD
:1013D000F3941092020210920102C3010E94E604EB
:1013E000882359F0C1010E9474042FEF34E34CE0CC
:1013F000215030404040E1F733CFC1010E946604E4
:10140000ECCF5FEF88EF95E1515080409040E1F7DD
:1014100000C00000812F902F0E947404AFEFB9E646
:10142000E8E1A150B040E040E1F700C00000812FAA
:10143000902F0E946004FFEF25EA3EE0F15020402B
:101440003040E1F700C0000098ECC92ED12C812F6C
:10145000902F0E9460048FE097E20197F1F700C09F
:101460000000C3010E9406055301811104C091E0F0
:10147000C91AD10861F7812F902F0E947404AFEF31
:10148000B4E3ECE0A150B040E040E1F700C0000060
:10149000C5010E943C05882319F083E090E0FDCE51
:1014A000C5010E949105C5010E943C05882309F4ED
:1014B0003FC0812F902F0E944404FFEF23ED30E3C3
:1014C000F15020403040E1F700C00000812F902F04
:1014D0000E9474044FEF54E38CE041505040804030
:1014E000E1F700C00000812F902F0E9460049FE769
:1014F000AEEDBFE09150A040B040E1F700C0000069
:10150000C5010E943C05811117C0812F902F0E94B8
:101510007404EFEFF4E32CE0E150F0402040E1F7F9
:1015200000C00000C5010E94910585E090E0B5CEA5
:10153000C5010E944405B7CFC1010E946004E0CFFD
:10154000CE018A5B9F4F0E943E0378946196AFACB8
:1015500061976296BFAC6297C3010E943C05D62C8E
:10156000C72C882309F449C0C5010E943403F894AC
:10157000809101029091020208970CF442C0A29659
:101580003FADA297332309F48EC3E1E4F0E0EC0F02
:10159000FD1FEF0DF11D8BE08083F394109202028A
:1015A00010920102812F902F0E9444045FEF8EE978
:1015B00094E2515080409040E1F700C00000812F3C
:1015C000902F0E947404AFEFB4E3ECE0A150B04060
:1015D000E040E1F700C000008D2D9C2D0E94060523
:1015E000882319F1C1010E947404FFEF24E33CE059
:1015F000F15020403040E1F733CEC3010E94440552
:10160000ABCF809101029091020208973CF6A2961E
:101610004FADA297442309F44DC3E1E4F0E0EC0F91
:10162000FD1FEF0DF11D88E0B7CFC1010E946004DE
:10163000D3CF812F902F0E9444044FEF5EE984E2C4
:10164000415050408040E1F700C00000812F902FB2
:101650000E9474049FEFA9E6B8E19150A040B04009
:10166000E1F700C00000812F902F0E946604EFEF89
:10167000F5EA2EE0E150F0402040E1F700C0000024
:10168000C3010E94E60463018823D1F0C1010E94D6
:1016900074043FEF44E35CE0315040405040E1F7D8
:1016A00000C00000C3010E944405C6010E943C0521
:1016B0008823D9F3C1010E94740488E090E0EDCD45
:1016C000C1010E946604DCCFC1010E9474045E0166
:1016D00081E2A80EB11CD12CC12CAF2DB0E0A09698
:1016E000BFAFAEAFA097A0962EAD3FADA0972C1583
:1016F0003D050CF09AC0AC962FADAC97AD963FADC2
:10170000AD97AE964FADAE97AF965FADAF9760E039
:1017100070E084E492E40E94120F2B014C01AE01B0
:10172000455C5F4F6C965FAF4EAF6C975A01D12C02
:10173000C12CA0962EAD3FADA097C216D3060CF4D7
:10174000B7C02E5F3F4FA9963FAF2EAFA9975E015E
:1017500038E3A30EB11CA696BFAEAEAEA697A9966F
:10176000CEACDFACA997A1961FAEA1974E2D50E04D
:10177000E1965FAF4EAFE1974C0D5D1DE3965FAF15
:101780004EAFE397E3962EAD3FADE397C216D30677
:101790000CF4D7C0AE014F5F5F4F6A01BE016F5BB3
:1017A0007F4F6C968EAD9FAD6C978F0D911DFA019A
:1017B00025E06C964EAD5FAD6C974817590709F060
:1017C00059C1E1E0F0E0EC0FFD1F53E0F59EE00DA4
:1017D000F11D1124AE01425C5F4FC5018E0D911DBC
:1017E00025E18A159B0509F056C182E791E00E9428
:1017F0000C01912C812CA096AEACBFACA097E196C9
:10180000EEADFFADE197AE0EBF1E8A149B040CF443
:101810004DC1AE01485B5F4F62E771E08E2D8F0DC9
:101820000E94DF0089E090E038CDF50181915F01F1
:10183000282F30E050E040E06E962CAF3DAF4EAF29
:101840005FAF6E97CA01B9010E94BC0F9B01AC014A
:10185000AC968FADAC976B968FAF6B97AD969FADF7
:10186000AD976C969FAF6C97AE96AFADAE976D96F9
:10187000AFAF6D97AF96BFADAF976E96BFAF6E9798
:101880006E966CAD7DAD8EAD9FAD6E970E94A60E2F
:10189000AC966FAFAC97AD967FAFAD97AE968FAF6E
:1018A000AE97AF969FAFAF97EFEFCE1ADE0A1BCF82
:1018B000C114D10409F003C289A1282F30E050E0FF
:1018C00040E06A962CAF3DAF4EAF5FAF6A97CA015A
:1018D000B9010E94BC0F9201A40167966FAF679790
:1018E00068967FAF689769968FAF69976A969FAF42
:1018F0006A976A966CAD7DAD8EAD9FAD6A970E947A
:10190000481067966FAF679768967FAF689769963C
:101910008FAF69976A969FAF6A976A966CAD7DADF7
:101920008EAD9FAD6A970E94840F645D6BAFD50149
:10193000ED915D01A196EFAFA197FFEFCF1ADF0AFE
:10194000F8CEA9968EAD9FADA997E1E2F0E0EC0F3D
:10195000FD1FEC0DFD1DC816D90609F04EC0808193
:10196000282F30E050E040E06A962CAF3DAF4EAFFC
:101970005FAF6A97CA01B9010E94BC0F9201A4012E
:1019800067966FAF679768967FAF689769968FAFD6
:1019900069976A969FAF6A976A966CAD7DAD8EAD7A
:1019A0009FAD6A970E94481067966FAF67976896D9
:1019B0007FAF689769968FAF69976A969FAF6A976E
:1019C0006A966CAD7DAD8EAD9FAD6A970E94840F17
:1019D0008DE5861BA696AEADBFADA6978D93A69658
:1019E000BFAFAEAFA697FD013197B081A196BFAF53
:1019F000A197EFEFCE1ADE0AC5CE8081282F30E006
:101A000050E040E06A962CAF3DAF4EAF5FAF6A97B3
:101A1000CA01B9010E94BC0F9201A40167966FAF81
:101A2000679768967FAF689769968FAF69976A9650
:101A30009FAF6A976A966CAD7DAD8EAD9FAD6A978C
:101A40000E94481067966FAF679768967FAF689758
:101A500069968FAF69976A969FAF6A976A966CADE1
:101A60007DAD8EAD9FAD6A970E94840FA1968FAD1C
:101A7000A197AFCF20836C96AEADBFAD6C973D9173
:101A80006C96BFAFAEAF6C973283DB013D91BD0169
:101A9000318333968ECE2083D5013D915D01328313
:101AA000DA013D91AD01318333969BCEAA964FADBD
:101AB000AA97AB965FADAB9762E771E0D6018C91C8
:101AC0000E94DF00AA964FADAA97AB965FADAB9789
:101AD00062E771E0F60181810E94DF00AA964FADB6
:101AE000AA97AB965FADAB9762E771E0D60112960D
:101AF0008C910E94DF00BFEF8B1A9B0AE3E0CE0EB1
:101B0000D11C83CE812F902F0E947404CE01C496E5
:101B10000E947D010E941201882369F08FE59AEEF0
:101B20000197F1F700C000000E941201882319F00C
:101B30008CE090E0B2CBCE01855B9F4F0E942101EB
:101B4000882309F450CBAFE5BAEE1197F1F700C046
:101B50000000CE01855B9F4F0E942101882309F47C
:101B600042CB8AE090E099CBE4968FADE497E5967E
:101B70009FADE5970E94B0010E94BC0060E570E057
:101B8000CE0143960E94FF01BFE7E8E3F1E0B150C8
:101B9000E040F040E1F700C00000CE0143960E9413
:101BA000F2022FE738E341E0215030404040E1F7B6
:101BB00000C00000A3965FADA3975F5FA3965FAFE1
:101BC000A397533009F00FCB8BE090E09093710115
:101BD00080937001A3961FAEA39705CB8FEF93ED73
:101BE000A0E381509040A040E1F700C00000CE018A
:101BF0008C5B9F4F0E949B06EE2DEF0DFF27FF1F72
:101C000025E12E9F50012F9FB00C1124F6E0AF0E5E
:101C1000B11C82E7882E81E0982ED12CC12C6396CE
:101C20004FAC639764965FAC6497D4018D914D017E
:101C3000813019F4C2010E948206F401319780813B
:101C4000811103C0C2010E946906BFEFCB1ADB0AF3
:101C5000AC14BD0454F7C2010E9454061092000255
:101C6000E1CDCE01C4960E9463014E2D4F0DBE0101
:101C70006F5F7F4FCE01865B9F4F0E94B406CE01FF
:101C8000C4960E94B00189E090E090937101809326
:101C9000700110920002A7CAFE01EE0DF11D83E152
:101CA00086AFE39496CBFE01EE0DF11D8FE086AF7B
:101CB000E39474CCFE01EE0DF11D81E1F8CFE1E279
:101CC000F0E0EC0FFD1FEC0DFD1D8081282F30E0B2
:101CD00050E040E06A962CAF3DAF4EAF5FAF6A97E1
:101CE000CA01B9010E94BC0F9201A40167966FAFAF
:101CF000679768967FAF689769968FAF69976A967E
:101D00009FAF6A976A966CAD7DAD8EAD9FAD6A97B9
:101D10000E94481067966FAF679768967FAF689785
:101D200069968FAF69976A969FAF6A976A966CAD0E
:101D30007DAD8EAD9FAD6A970E94840FA1968FAD49
:101D4000A197860FD5018C93F2CD5058BB27AA27B7
:101D50000E94BD0E0C940E100E94001038F00E94DC
:101D6000071020F039F49F3F19F426F40C94FD0F6E
:101D70000EF4E095E7FB0C94F70FE92F0E941F107B
:101D800058F3BA17620773078407950720F079F4B0
:101D9000A6F50C9441100EF4E0950B2EBA2FA02D51
:101DA0000B01B90190010C01CA01A0011124FF2708
:101DB000591B99F0593F50F4503E68F11A16F04003
:101DC000A22F232F342F4427585FF3CF4695379502
:101DD0002795A795F0405395C9F77EF41F16BA0BC7
:101DE000620B730B840BBAF09150A1F0FF0FBB1F75
:101DF000661F771F881FC2F70EC0BA0F621F731FBE
:101E0000841F48F4879577956795B795F7959E3F1A
:101E100008F0B0CF9395880F08F09927EE0F9795AB
:101E2000879508950E94260F0C940E100E940710AB
:101E300058F00E94001040F029F45F3F29F00C9404
:101E4000F70F51110C9442100C94FD0F0E941F10BB
:101E500068F39923B1F3552391F3951B550BBB27D9
:101E6000AA2762177307840738F09F5F5F4F220F1E
:101E7000331F441FAA1FA9F335D00E2E3AF0E0E815
:101E800032D091505040E695001CCAF72BD0FE2F5F
:101E900029D0660F771F881FBB1F261737074807F3
:101EA000AB07B0E809F0BB0B802DBF01FF279358AB
:101EB0005F4F3AF09E3F510578F00C94F70F0C9469
:101EC00042105F3FE4F3983ED4F38695779567958B
:101ED000B795F7959F5FC9F7880F911D96958795E0
:101EE00097F90895E1E0660F771F881FBB1F6217FF
:101EF00073078407BA0720F0621B730B840BBA0BBD
:101F0000EE1F88F7E09508950E948B0F6894B11139
:101F10000C94421008950E94271088F09F5798F063
:101F2000B92F9927B751B0F0E1F0660F771F881FDE
:101F3000991F1AF0BA95C9F714C0B13091F00E94F8
:101F40004110B1E008950C944110672F782F882735
:101F5000B85F39F0B93FCCF3869577956795B3951F
:101F6000D9F73EF490958095709561957F4F8F4F8E
:101F70009F4F0895E89409C097FB3EF49095809593
:101F8000709561957F4F8F4F9F4F9923A9F0F92F3F
:101F900096E9BB279395F695879577956795B795BD
:101FA000F111F8CFFAF4BB0F11F460FF1BC06F5FA3
:101FB0007F4F8F4F9F4F16C0882311F096E911C0B5
:101FC000772321F09EE8872F762F05C0662371F0D6
:101FD00096E8862F70E060E02AF09A95660F771FEA
:101FE000881FDAF7880F9695879597F9089597F9DE
:101FF0009F6780E870E060E008959FEF80EC0895AF
:1020000000240A94161617061806090608950024D7
:102010000A9412161306140605060895092E039451
:10202000000C11F4882352F0BB0F40F4BF2B11F4C5
:1020300060FF04C06F5F7F4F8F4F9F4F089557FD24
:102040009058440F551F59F05F3F71F04795880F26
:1020500097FB991F61F09F3F79F0879508951216BD
:1020600013061406551FF2CF4695F1DF08C0161669
:1020700017061806991FF1CF86957105610508941A
:102080000895E894BB2766277727CB0197F9089531
:102090000E945B100C940E100E94001038F00E94F9
:1020A000071020F0952311F00C94F70F0C94FD0FFE
:1020B00011240C9442100E941F1070F3959FC1F3DD
:1020C000950F50E0551F629FF001729FBB27F00DE6
:1020D000B11D639FAA27F00DB11DAA1F649F66273B
:1020E000B00DA11D661F829F2227B00DA11D621F8A
:1020F000739FB00DA11D621F839FA00D611D221F44
:10210000749F3327A00D611D231F849F600D211D27
:10211000822F762F6A2F11249F5750409AF0F1F0AA
:1021200088234AF0EE0FFF1FBB1F661F771F881F13
:1021300091505040A9F79E3F510580F00C94F70F45
:102140000C9442105F3FE4F3983ED4F38695779564
:102150006795B795F795E7959F5FC1F7FE2B880FB9
:10216000911D9695879597F908950F9301E020E0CA
:1021700044E250E065E270E083E092E00E944B01AF
:102180000F91089597FB072E16F4009407D077FD62
:1021900009D00E94DC1007FC05D03EF49095819593
:1021A0009F4F0895709561957F4F0895EE0FFF1F23
:1021B0000590F491E02D0994AA1BBB1B51E107C0C7
:1021C000AA1FBB1FA617B70710F0A61BB70B881FC7
:1021D000991F5A95A9F780959095BC01CD01089556
:1021E000FA01EE0FFF1F309621053105A1F16115AF
:1021F000710561F48038BFE39B0749F1689490381A
:10220000810561F08038BFEF9B0741F099234AF5C3
:10221000FF3FE1053105210519F1E8940894E795A0
:10222000D901AA2329F4AB2FBE2FF85FD0F310C039
:10223000FF5F70F4A695E0F7F73950F019F0FF3A18
:1022400038F49F779F930DD00F9007FC9058089516
:1022500046F00C94FD0F60E070E080E89FE3089585
:102260004FE79F775F934F933F932F930E94EB111C
:102270002F913F914F915F910E9448100C9448110B
:1022800029F416F00C94F70F0C9441100C94FD0FE8
:102290000E942710A8F39638A0F707F80F92E89449
:1022A0002BE33AEA48EB5FE70E945E100F920F9231
:1022B0000F924DB75EB70F920E943312ECE7F0E039
:1022C0000E947A114F915F91EF91FF91E595EE1F7A
:1022D000FF1F49F0FE57E0684427EE0F441FFA95B0
:1022E000E1F74195550B0E94AD110F9007FE0C943C
:1022F000A1110895DF93CF931F930F93FF92EF9255
:10230000DF927B018C01689406C0DA2EEF010E94F7
:102310005B10FE01E894A591259135914591559169
:10232000A6F3EF010E94BD0EFE019701A801DA9409
:1023300069F7DF90EF90FF900F911F91CF91DF91A0
:1023400008959B01AC0160E070E080E89FE30C948D
:10235000120F0C94F70F0C9467120E942710D8F3F9
:102360009923C9F3940F511DA3F39150504094F059
:1023700059F0882332F0660F771F881F9150504024
:10238000C1F79E3F51052CF7880F911D96958795B3
:1023900097F908955F3FACF0983E9CF0BB27869577
:1023A00077956795B79508F4B1609395C1F7BB0F22
:1023B00058F711F460FFE8CF6F5F7F4F8F4F9F4F4B
:1023C000E3CF0C94421016F00C9467120C94FD0F9E
:1023D00068940C94F70F0E942710A8F39923C1F377
:1023E000AEF3DF93CF931F930F93FF92C92FDD2797
:1023F00088232AF02197660F771F881FDAF720E0DD
:1024000030E040E85FEB9FE3883920F0803E38F011
:1024100021968F770E94A60EE4EAF0E004C00E94A5
:10242000A60EE1EDF0E00E947A118B01BE01EC01F5
:10243000FB2E6F5771097595771F880B990B0E94BA
:10244000BC0F28E132E741E35FE30E945B10AF2D50
:102450009801AE01FF900F911F91CF91DF910E94E3
:10246000BD0E0C940E10FA01DC01AA0FBB1F9B01DC
:10247000AC01BF5728F4222733274427507820C0C7
:10248000B75190F4AB2F0024469537952795011C42
:10249000A395D2F3002071F0220F331F441FB39590
:1024A000DAF30ED00C94A50E61307105A0E88A070E
:1024B000B94630F49B01AC016627772788279078CE
:1024C000309621F0208331834283538308959F3FC8
:1024D00031F0915020F4879577956795B795880FDF
:1024E000911D9695879597F90895AEE0B0E0EBE7DA
:1024F000F2E10C942C150D891E8986E08C831A83D9
:1025000009838F89988D813020E8920710F080E050
:1025100090E801979E838D83AE01455E5F4F698D84
:102520007A8DCE0101960E94A7124D815E8157FDE2
:102530000AC02F813885421753070CF49A01020F05
:10254000131FF80110822E96E4E00C944815AFE0BA
:10255000B0E0EDEAF2E10C941E157C013B018A012A
:10256000DC0117961C921E92169713968C9181FF90
:10257000BEC19AE0292EFE0131964F01D701139674
:102580009C91F30193FD859193FF81913F018823F5
:1025900009F444C1853239F493FD859193FF81910B
:1025A0003F01853229F4B70190E00E949014E6CFF4
:1025B000B12C412C512CBFE1B51538F08B3209F10B
:1025C00088F4803201F1833221F157FC3AC020EDCA
:1025D000280F2A3040F556FE1FC0B29C200D112452
:1025E000B22E06C08D3291F0803379F7689450F89E
:1025F000F30193FD859193FF81913F018111DBCF21
:1026000020C0689451F8689452F8F2CF689453F857
:10261000EFCF689454F8ECCF429C200D1124422E49
:10262000689455F8E5CF8E3229F456FCF7C06894CB
:1026300056F8DECF8C3619F4689457F8D9CF88361F
:10264000B9F2982F9F7D95549330C0F0833681F175
:102650008337A1F1833509F05BC0D801CD90DD90BF
:102660008D016B2D70E056FC02C06FEF7FEFC6014D
:102670000E947A145C01689457F80AC00C5F1F4FDF
:10268000EFE3E983AA24A394B12C6401E89457F8FA
:1026900053FE29C0342CA114B10451F5332009F4A0
:1026A0006DCFB70180E290E00E9490143A94F6CF8B
:1026B000D8018C9189830E5F1F4FE4CFF801C19040
:1026C000D1908F016B2D70E056FC02C06FEF7FEF51
:1026D000C6010E9485145C01D9CFB70180E290E069
:1026E0000E9490144A944A141B0409F0B0F7D2CF08
:1026F000F60157FC859157FE81916F01B70190E07B
:102700000E94901431103A94B1E0AB1AB108C3CFD3
:10271000843619F0893609F071C0F80157FE67C098
:1027200061917191819191918F01E52DEF76DE2E6E
:1027300097FF09C090958095709561957F4F8F4F59
:102740009F4F6894D7F82AE030E0A4010E94C0149B
:10275000C82EC818AC2C5D2CD6FE0CC0E89450F8DE
:10276000CB1440F4D4FE05C0D2FC03C05D2D5E7EC8
:10277000552EAB2C54FE93C0FE01EC0DF11D808153
:10278000803309F085C0652D697E562E752D7870D1
:10279000372E53FC93C050FE8DC0BC2CA41410F4F3
:1027A000B40CBA1854FE90C0B70180E390E00E94C8
:1027B000901452FE07C088E751FC88E590E0B7010D
:1027C0000E949014CB1408F48BC0CA94D12C8FEFC4
:1027D000C81AD80AC80CD91CD6018E916D01B70150
:1027E00090E00E9490148C149D04B1F757CF619132
:1027F0007191072E000C880B990B96CFD52CE8947D
:10280000D4F82AE0853729F1F52DF97FDF2E8037BE
:10281000A1F058F48835A1F08F36D1F0F701868108
:1028200097812F96E2E10C943A158837B9F7D4FED8
:1028300002C06894D2F820E10CC06894D4F8F7CFB5
:1028400054FE03C02F2F2660D22E20E132E002C0BA
:1028500028E030E0F801D7FE15C041915191619117
:1028600071914C875D876E877F878F01A4016C858E
:102870007D858E859F850E94C014C82EC818E89457
:10288000D7F868CF81919191AC0170E060E0E9CF19
:1028900052FC02C0A3947ACFA394A39477CF852D42
:1028A000867809F473CFF6CFB70180E290E00E94FA
:1028B0009014A394A414C0F3312C74CF342C3A1880
:1028C000A41408F46FCFF8CF852D867809F47ACF59
:1028D0008BE251FE80E257FC8DE2B70190E070CFB1
:1028E000B70180E390E00E949014BA946BCF8FEF11
:1028F0009FEF97CFFC010590615070400110D8F711
:10290000809590958E0F9F1F0895FC016150704037
:1029100001900110D8F7809590958E0F9F1F089514
:102920000F931F93CF93DF93182F092FEB018B8108
:1029300081FD09C01FEF0FEF812F902FDF91CF9105
:102940001F910F91089582FF14C02E813F818C81C9
:102950009D81281739073CF4E881F981CF01019660
:102960009983888310838E819F8101969F838E83B4
:10297000E3CFE885F985812F0995892BA1F3DACF7B
:10298000FA01AA27283051F1203181F1E8946F93A0
:102990006E7F6E5F7F4F8F4F9F4FAF4FB1E03ED046
:1029A000B4E03CD0670F781F891F9A1FA11D680FE4
:1029B000791F8A1F911DA11D6A0F711D811D911D17
:1029C000A11D20D009F468943F912AE0269F11248C
:1029D0003019305D3193DEF6CF010895462F4770F0
:1029E000405D4193B3E00FD0C9F7F6CF462F4F704B
:1029F000405D4A3318F0495D31FD4052419302D0A9
:102A0000A9F7EACFB4E0A69597958795779567954E
:102A1000BA95C9F700976105710508959B01AC014E
:102A20000A2E06945795479537952795BA95C9F775
:102A3000620F731F841F951FA01D08952F923F9250
:102A40004F925F926F927F928F929F92AF92BF92BE
:102A5000CF92DF92EF92FF920F931F93CF93DF936A
:102A6000CDB7DEB7CA1BDB0B0FB6F894DEBF0FBEC7
:102A7000CDBF09942A88398848885F846E847D8414
:102A80008C849B84AA84B984C884DF80EE80FD8016
:102A90000C811B81AA81B981CE0FD11D0FB6F8948C
:102AA000DEBF0FBECDBFED010895F894FFCFFE0845
:102AB00039095209DA099309A00A010A190B640BB2
:102AC000820DB40DEE0D310EF30600070007080766
:102AD0001C072807760776077607760776077607B6
:102AE000C107A907C107CD07CD07CD07CD07CD0782
:0E2AF000CD0701081C073908000700074A0837
:102AFE0025640A00E2948C00E2949000E294800037
:102B0E00E29482002000E2948F00E2949300E2941B
:102B1E008100E2948300E2959400E2959700E2959D
:102B2E00A600E2959000E2959100E295A300E29551
:102B3E009A00E2959D00E295A900E2949700E29436
:102B4E009B00E2949400E294980050726F64756951
:102B5E0074207061723A20502E412E4D2E5300007B
:00000001FF
